:020000020000FC
:0200000009C035
:02000E0033C0FD
:100012009EC0F89402E00EBF0FE50DBF06B70F7742
:1000220006BF05B700620F7E05BF04B70F6D04BFA0
:100032000FEF07BB00E00ABB40E074E684E694E6FB
:1000420000E000BD0CE009B908E90AB906E800BD04
:1000520004E602BF02E009BF04E003BF00E010E0D3
:1000620020E030E040E0A5E070E080E090E07894AD
:100072008895FECF04E602BF29B320FD01C022D03D
:1000820021FD01C026D022FD04C0743610F029D013
:1000920070E023FD04C0843610F063D080E024FDBC
:1000A20004C0843610F06CD080E0313009F41CD0EA
:1000B200743608F47395843608F48395943608F4FC
:1000C2009395189530E01FE0109518BB1095A0E0AD
:1000D200089530E010EF109518BB109540E0A1E0B4
:1000E200089531E040E008954431A03011F0A1308C
:1000F200A1F04B3409F440E0403069F4153509F4BD
:1001020007C0103011F41AEA03C000E0109F102D4E
:10011200109518BB1095439508954B3409F440E0AF
:10012200403069F41A3A09F407C0103011F415E5A9
:10013200EFCF00E0109F102D109518BB109543953E
:100142000895F8940CB95D9BFECF78940895F894C5
:100152000CB10E3409F405D00C3409F411D07894A2
:10016200189504E4EEDF08E3ECDF0EE6EADF09E6C9
:10017200E8DF03E7E6DF0DE0E4DF0AE0E2DF08950F
:1001820005E4DFDF07E6DDDF0FE6DBDF02E7D9DFCD
:0A0192000DE0D7DF0AE0D5DF089585
:00000001FF
