:020000020000FC
:0200000009C035
:02000E00B8C078
:1000120037C00FE50DBF02E00EBF0FEF02BF02E0D7
:1000220009BF04E003BF0FEF07BB1FE030E040E071
:1000320060E080E000E000BD09E109B906B70F7792
:1000420006BF05B700620F7E05BF04B70F6D04BF80
:1000520008E90AB906E800BD00E00ABB789401D0BD
:10006200FECF86300CF40895C99B1ED0CA9B22D0C5
:10007200CB9B21D0CC9B25D0CD9B28D080E008956E
:10008200F8940CB1091761F490E0013369F002337E
:1000920089F0033381F00433A1F00533B9F002C0D3
:1000A200902F00C0789418953EE1403089F041309D
:1000B20089F012C079C036E2403051F0413051F03F
:1000C2000BC0603089F06130F9F006C039E22AC015
:1000D20041E002C040E000C078941895F8940CB951
:1000E2005D9BFECF7894089504E4F8DF05E6F6DF21
:1000F2000EE6F4DF09E6F2DF03E7F0DF0DE0EEDF04
:100102000AE0ECDF6395089505E4E8DF07E6E6DF41
:100112000FE6E4DF02E7E2DF0DE0E0DF0AE0DEDF28
:100122006395089510FD28D010FF23D011FD24D02F
:1001320011FF1FD012FD20D012FF1BD013FD1CD0C7
:1001420013FF17D014FD18D014FF13D015FD14D0CF
:1001520015FF0FD016FD10D016FF0BD017FD0CD0D7
:1001620017FF07D000E0BADF0DE0B8DF0AE0B6DF24
:10017200089501E3B3DF089500E3B0DF0895F89432
:10018200839523954030B9F000D02317A0F0103F9B
:1001920041F0113E31F0133C21F0173811F0110FEC
:1001A20006C0110F139503C00FEF102700C020E007
:0A01B20000C018BB00C07894189537
:00000001FF
