:020000020000FC
:0200000009C035
:02000E0045C0EB
:1000120025C00FE50DBF02E00EBF0FEF02BF02E0E9
:1000220009BF05E003BF0FEF07BB1FE030E040E070
:1000320000E000BD09E109B906B70F7706BF05B7B1
:1000420000620F7E05BF04B70F6D04BF08E90AB94D
:1000520006E800BD00E00ABB7894FFCFF8940CB12B
:10006200013339F0023359F0033351F0C8987894D0
:10007200189534E0403051F0413051F00BC020C0AF
:1000820036E0403019F0413019F004C041E002C0BE
:1000920040E000C078941895F8944030C1F0239560
:1000A20000D02317A0F0103F41F0113E31F0133C75
:1000B20021F0173811F0110F06C0110F139503C06C
:1000C2000FEF102700C020E000C018BB00C07894DA
:0200D20018957F
:00000001FF
