:020000020000FC
:0200000009C035
:02000E00C2C06E
:1000120038C00FE50DBF02E00EBF00E002BF02E0F4
:1000220009BF05E003BF0FEF07BB1FE030E040E070
:1000320060E080E018BB00E000BD09E109B906B745
:100042000F7706BF05B700620F7E05BF04B70F6DBD
:1000520004BF08E90AB906E800BD00E00ABB7894CB
:1000620001D0FECF8A300CF40895C99B1ED0CA9BE2
:1000720025D0CB9B24D0CC9B2BD0CD9B2ED080E007
:100082000895F8940CB1091761F490E0013369F016
:100092000233A1F0033399F00433D1F00533E9F0D0
:1000A20002C0902F00C0789418953DE120E000E056
:1000B20002BF4030B9F04130B9F018C07FC035E21C
:1000C20020E000E002BF403069F0413069F00EC02C
:1000D2006030A1F0613011F109C038E220E000E0A7
:1000E20002BF2AC041E002C040E000C078941895E7
:1000F200F8940CB95D9BFECF7894089504E4F8DF80
:1001020005E6F6DF0EE6F4DF09E6F2DF03E7F0DFED
:100112000DE0EEDF0AE0ECDF6395089505E4E8DF29
:1001220007E6E6DF0FE6E4DF02E7E2DF0DE0E0DF0D
:100132000AE0DEDF6395089510FD28D010FF23D07A
:1001420011FD24D011FF1FD012FD20D012FF1BD0B1
:1001520013FD1CD013FF17D014FD18D014FF13D0B9
:1001620015FD14D015FF0FD016FD10D016FF0BD0C1
:1001720017FD0CD017FF07D000E0BADF0DE0B8DFA3
:100182000AE0B6DF089501E3B3DF089500E3B0DFCC
:100192000895F894839523954030B9F000D0231741
:1001A200A0F0103F41F0113E31F0133C21F017381E
:1001B20011F0110F06C0110F139503C00FEF102796
:0E01C20000C020E000C018BB00C07894189563
:00000001FF
