:020000020000FC
:0200000009C035
:02000E0035C0FB
:10001200A9C0F89402E00EBF0FE50DBF06B70F7737
:1000220006BF05B700620F7E05BF04B70F6D04BFA0
:100032000FEF07BB00E00ABB40E074E684E694E6FB
:1000420000E000BD0CE009B908E90AB906E800BD04
:1000520004E602BF02E009BF04E003BF00E010E0D3
:1000620020E030E040E050E0A5E060E070E080E0B9
:1000720090E078948895FECF04E602BF29B320FD74
:1000820001C02BD021FD01C02FD022FD04C0743647
:1000920010F032D070E023FD04C0843610F06FD02F
:1000A20080E024FD04C0843610F078D080E025FD85
:1000B20004C0943610F07DD090E0313009F41FD0A6
:1000C200513009F479D0743608F47395843608F403
:1000D2008395943608F49395189530E01AEA1095B2
:1000E20018BB1095A0E0089530E015E5109518BBF7
:1000F200109540E0A1E0089531E040E008954431D8
:10010200A03011F0A130A1F04B3409F440E04030AE
:1001120069F4153509F407C0103011F41AEA03C066
:1001220000E0109F102D109518BB1095439508956F
:100132004B3409F440E0403069F41A3A09F407C03C
:10014200103011F415E5EFCF00E0109F102D10953F
:1001520018BB109543950895F8940CB95D9BFECF9A
:1001620078940895F8940CB10E3409F408D00C3444
:1001720009F414D0033509F41CD0789418950EE4D0
:10018200EBDF01E6E9DF04E6E7DF09E7E5DF01E6A9
:10019200E3DF0DE0E1DF0AE0DFDF08950CE4DCDFFE
:1001A20005E6DADF06E7D8DF0DE0D6DF0AE0D4DFC6
:1001B200089551E060E00895683C09F460E0603021
:1001C20081F403E5C9DF05E6C7DF02E7C5DF07E61D
:1001D200C3DF05E6C1DF09E7BFDF09E0BDDF00E2FB
:0601E200BBDF63950895E8
:00000001FF
